:020000022000DC
:1060000000000420B5620200DD620200B5A20200B9
:10601000E1620200E3620200E562020000000000AB
:10602000000000000000000000000000E762020025
:10603000E962020000000000EB620200ED62020073
:1060400051AF0200EF6202003DAF02004DAF02000F
:1060500049AF0200EF62020005B30200E5A70200AB
:1060600095A602003DA60200E5A5020071AA020065
:10607000EF6202000DAB0200EF620200EF6202006D
:10608000EDA20200E9A2020055AB020041AF0200FE
:1060900051A702003DA7020029A7020015A7020090
:1060A00001A70200EDA602008DA5020035A50200A1
:1060B00071AE020085B00200000000000000000088
:1060C000EF620200A5AD0200D9AC020045AF0200AC
:1060D000D5A90200C9B10200EF6202000DA30200BF
:1060E000EF62020031AB020045D302000000000065
:1060F000000000000DAC02000000000065A70200D7
:10610000000000000000000000000000000000008F
:10611000000000000000000000000000000000007F
:10612000000000000000000000000000000000006F
:10613000000000000000000000000000000000005F
:10614000000000000000000000000000000000004F
:10615000000000000000000000000000000000003F
:10616000000000000000000000000000000000002F
:10617000000000000000000000000000000000001F
:10618000000000000000000000000000000000000F
:1061900000000000000000000000000000000000FF
:1061A00000000000000000000000000000000000EF
:1061B00000000000000000000000000000000000DF
:1061C00000000000000000000000000000000000CF
:1061D00000000000000000000000000000000000BF
:1061E00000000000000000000000000000000000AF
:1061F000000000000000000000000000000000009F
:1062000010B5054C237833B9044B13B10448AFF3F0
:1062100000800123237010BD000100200000000059
:106220006CF2020008B5034B1BB103490348AFF3FE
:10623000008008BD00000000040100206CF2020094
:10624000154B002B08BF134B9D46A3F5803A002148
:106250008B460F461348144A121A07F091FC0F4B55
:10626000002B00D098470E4B002B00D09847002001
:10627000002104000D000D48002802D00C48AFF3A7
:10628000008007F043FC2000290005F015FB07F013
:1062900029FC00BF000008000000042000000000EE
:1062A0000000000000010020742F0020000000000A
:1062B000000000000649074A074B9B1A03DD043B18
:1062C000C858D050FBDC03F07FFEFFF7B9FF000099
:1062D000D0F202000000002000010020FEE7FEE7EF
:1062E000FEE7FEE7FEE7FEE7FEE7FEE7FEE7FEE786
:1062F000BFF34F8F0549064BCA6802F4E0621343AF
:10630000CB60BFF34F8F00BFFDE700BF00ED00E0A3
:106310000400FA0508B5024B9A6ADB6AFFF7E8FF4A
:1063200000ED00E02DE9F04143681BB1364AD46826
:10633000A34241D2DFF8D480DFF8D0C000230B8025
:10634000DCF804304FF0010E03F580544FF6FF7770
:1063500008339C420FD8BEF1020FA1F800E00CF107
:10636000140C4ED0DCF8043003F5805408339C4202
:106370004FF0020EEFD91A680132ECD05A8803327E
:1063800003EB82029442E6D39D88BD4209D01D886A
:106390003DB19D686E1C04D00668AE4205D0134620
:1063A000D7E79442D7D91346E5E74360B8F83030D1
:1063B00003810120BDE8F08112699342BAD813F03D
:1063C0000305DFF84880B7D10489B8F8302094423B
:1063D000B2D104689A689442AED1D8F804209342AE
:1063E00003D902F58052934208D3D8F8182093427B
:1063F00007D902F58052934203D201250D80012076
:10640000D8E70020D6E700BF70000020000200207F
:10641000F0B490F8203001229A40C2F31303002B0D
:1064200040F0FD80874B027AFF2A3FD1427AFF2A53
:1064300040F0E1800268551C40F0AA80027D0024F3
:10644000FF2AC47240F09080427DFF2A78D1C26852
:10645000541C3FD10024C4750A687B4E116841F377
:106460000730400901252030C1F3043105FA01F15C
:1064700046F820101168D1F80002C1F800421168F6
:106480004FF0FF30C1F8080311680D61117901EB7D
:10649000410103EB810181F8B450127902EB420211
:1064A00003EB820383F8B440F0BC7047012404FA84
:1064B00002F2C2F3130454B1644CC4F8082572B656
:1064C000D3E90E5424EA0202DA6305B962B6FF2268
:1064D0000272ABE79D1895F8704095F97050072C43
:1064E0000AD803EB84045A4E05F5A2754FF0FF3726
:1064F0002764002446F825409C18FF2584F8705036
:10650000544ED50802F0070C775D012404FA0CF410
:10651000274211D01F2A88BF02F01F0202F5E07245
:106520008CBF4D4F4FF0A0474FF0020C47F822C0F0
:10653000725D22EA040474554FF0FF32C26089E7AD
:10654000012404FA02F2C2F3130454B13F4CC4F81C
:10655000082572B6D3E90E5424EA0202DA6305B9BB
:1065600062B6FF22427572E7012404FA02F2C2F316
:10657000130454B1354CC4F8082572B6D3E90E544F
:1065800024EA0202DA6305B962B6FF2202755BE70C
:106590009D1895F8704095F97050072C0AD803EBB8
:1065A00084042B4E05F5A2754FF0FF3727640024B5
:1065B00046F825409C18FF2684F87060254DD608C3
:1065C00002F0070CAF5D012404FA0CF427420ED050
:1065D0001F2A33D9204F02F01F0202F5E0724FF05C
:1065E000020C47F822C0AA5D22EA0404AC554FF021
:1065F000FF32026022E7012404FA02F2C2F313041C
:1066000054B1124CC4F8082572B6D3E90E5424EAEA
:106610000202DA6305B962B6FF2242720AE70B4B47
:10662000C3F8082572B6074BD3E90E5424EA0202D8
:10663000DA63002D7FF4F7AE62B6F4E64FF0A047C0
:10664000CBE700BF0002002000E100E000F00140C5
:1066500000600040A4020020000300502DE9F84330
:10666000194E0C4606EB410706EB810900254FF059
:1066700001087B1993F8E82072B193F8E820013AF9
:10668000D2B283F8E82093F8E830204663B9D9F80D
:10669000F4301B68DB69984725B1B8F1000F06D1CB
:1066A000BDE8F8830125E4E74FF00008F4E706EBC6
:1066B00084044FF48022D4F8F4305B681B68C3F87C
:1066C0000823BDE8F88300BF00020020024B01222E
:1066D00083F80821704700BF0002002010B5264B48
:1066E000D3F80044C3F8004482B0BFF36F8FBFF308
:1066F0004F8FBFF36F8FBFF34F8FE1050DD51F4A4B
:106700000023022001218DF804008DF80730ADF838
:10671000053001A882F809119847A2050CD5174A3F
:10672000002303218DF80730ADF805308DF80410F3
:1067300001A882F80931984763051AD50F4A92F8E3
:106740000931B3B10C4C0E480121002382F8093104
:10675000C4F808150160BFF36F8FBFF34F8F042299
:10676000ADF805308DF807308DF804200DEB0200F0
:10677000984702B010BD00BF007002400002002028
:10678000587002402DE9F042734C744B94F914C1D7
:1067900094F81471D3F88054D4E94310BCF1000F7D
:1067A000B4BF0022102207F00F06CB4332444FF053
:1067B000010E9BB20EFA02F203431A4284B020D1BA
:1067C00003A805F08005664B84F814516FF00112A0
:1067D00053E8005F05EA020643E8006797F0000F00
:1067E000F6D10023052241F001018DF80C208DF82F
:1067F0000F30ADF80D30C4F80C11984704B0BDE867
:10680000F08272B6A36BBCF1000F03F10102A26328
:1068100022DB06F11001D4F810210EFA01FE04F576
:106820008C703EEA020100EB061C4FEA06194DD1BE
:10683000D4F80C6140F8091022EA0E0226EA0E0193
:10684000C4E9431203228CF80E2003A8A36303B902
:1068500062B6D4F80C11B4E73B070FD4802F57D0A1
:106860004049414A06F2DA335B000B601368116855
:10687000DBB243F002030B4313601368D4E94321F6
:10688000012361EA0200B340184203D1A36B03A8BD
:10689000013BDBE735488DF80E70370121EA030133
:1068A00000EB061613430022C2514FF0060C03A85A
:1068B0000327C4E943310190B7738DF80F708DF849
:1068C0000CC09047A36B0198013BBFE7284B1B68A6
:1068D000082B2BD072B6D4F80C21A36B22EA0E023F
:1068E000591C17F00807C4F80C21A1630AD11B4BEF
:1068F00006F5947643F82670BFF36F8FBFF34F8F82
:10690000A36B013BA3630BB962B6A36B013B99E791
:10691000144B154A40F2B471196013681168DBB268
:1069200043F004030B4313601368A7E7114B186887
:106930000028CFD172B60B49D4F80C2140F2C573B0
:1069400003EB46060E6022EA0E02A36B4860C4F811
:106950000C214A68D6E700BF000200200070024008
:10696000100300200078024004780240A8030020B1
:106970003001001034010010F0B5424B93F914219E
:1069800093F81411002A83B017DBD3E9430401F014
:106990000F021032012505FA02F210432240C3F81B
:1069A0000C0108D106238DF806108DF807508DF8DC
:1069B000043001A8904703B0F0BD01F00F04324A43
:1069C000D3F80C0132F8142002F1804202F51C3297
:1069D0000125A5401668284324B2C3F80C01D6B19E
:1069E00000201060BFF36F8FBFF34F8F274A8029BD
:1069F00012681FD0082A04BF254A1060254A02EBFE
:106A000004100026807B83F8386203284FEA0414C0
:106A10002CD0105950B3D3F810312B40CBD10622D3
:106A20008DF806108DF807308DF8042001A89847DE
:106A300003B0F0BD082A04BF154A106093F8B621D0
:106A40000020032A83F8380203D0D3F8A821002AB3
:106A5000E1D1114A6FF0010052E8004F04EA00064C
:106A600042E8006797F0000FF6D1D4E7983AE84380
:106A700052E8004F04EA000642E8006797F0000F72
:106A8000F6D1C8E70002002080EC020030010010BF
:106A90001C7C0240A80300201003002000B583B036
:106AA00000220D4B8DF80420D3F82015ADF8061008
:106AB000D3F8C03409499342D1F80C310CBF4FF4DC
:106AC00080704FF001200343C1F80C3101A89047BA
:106AD00003B05DF804FB00BF00700240000200201C
:106AE000154B1B68082B02D1144B00221A60144B63
:106AF00093F8A6210021032A83F8381202D0D3F894
:106B0000982102B1704730B503F5887383B06FF0F8
:106B1000807153E8000F00EA010443E8004595F056
:106B2000000FF6D1062108238DF80410ADF80630C9
:106B300001A8904703B030BD300100101C7C02401A
:106B40000002002030B52E4B1B68082B83B002D109
:106B50002C4B00221A602C4B93F826210021032A8B
:106B600083F8381225D0D3F8182162B1244B1B6862
:106B7000082B2DD0254B01221A60BFF36F8FBFF376
:106B80004F8F03B030BD03F588736FF4803153E845
:106B9000000F00EA010443E8004595F0000FF6D12C
:106BA0000623ADF806208DF8043001A8904703B005
:106BB00030BD03F588736FF4803253E8001F01EA9B
:106BC000020043E8000494F0000FF6D103B030BD9A
:106BD0000F4B1B68002BCDD1EFF3108172B60B4B1E
:106BE00001221A60BFF36F8FBFF34F8F1A60BFF39C
:106BF0006F8FBFF34F8F81F3108803B030BD00BF9C
:106C0000300100101C7C0240000200204C70024049
:106C10003401001030B51D4B1B68082B83B002D126
:106C20001B4B00221A601B4B93F836220021032ACB
:106C300083F8381204D0D3F8282282B103B030BDD3
:106C400003F588736FF4807253E8001F01EA0200B5
:106C500043E8000494F0000FF6D103B030BD03F513
:106C600088736FF4807153E8000F00EA010443E871
:106C7000004595F0000FF6D1062188238DF8041009
:106C8000ADF8063001A8904703B030BD30010010C8
:106C90001C7C02400002002010B4124B1B68082B21
:106CA00002D1114B00221A60104B93F826220021CA
:106CB000032A83F8381205D0D3F8182212B15DF8F0
:106CC000044B704703F588736FF0800253E8001F90
:106CD00001EA020043E8000494F0000FF6D15DF8E9
:106CE000044B7047300100101C7C02400002002061
:106CF00010B4124B1B68082B02D1114B00221A60F2
:106D0000104B93F816220021032A83F8381205D07D
:106D1000D3F8082212B15DF8044B704703F588736D
:106D20006FF0400253E8001F01EA020043E800044C
:106D300094F0000FF6D15DF8044B7047300100105D
:106D40001C7C02400002002010B4124B1B68082B70
:106D500002D1114B00221A60104B93F80622002139
:106D6000032A83F8381205D0D3F8F82112B15DF860
:106D7000044B704703F588736FF0200253E8001F3F
:106D800001EA020043E8000494F0000FF6D15DF838
:106D9000044B7047300100101C7C024000020020B0
:106DA00010B4124B1B68082B02D1114B00221A6041
:106DB000104B93F8F6210021032A83F8381205D0EE
:106DC000D3F8E82112B15DF8044B704703F58873DE
:106DD0006FF0100253E8001F01EA020043E80004CC
:106DE00094F0000FF6D15DF8044B704730010010AD
:106DF0001C7C02400002002010B4124B1B68082BC0
:106E000002D1114B00221A60104B93F8E6210021A9
:106E1000032A83F8381205D0D3F8D82112B15DF8CF
:106E2000044B704703F588736FF0080253E8001FA6
:106E300001EA020043E8000494F0000FF6D15DF887
:106E4000044B7047300100101C7C024000020020FF
:106E500010B4124B1B68082B02D1114B00221A6090
:106E6000104B93F8D6210021032A83F8381205D05D
:106E7000D3F8C82112B15DF8044B704703F588734D
:106E80006FF0040253E8001F01EA020043E8000427
:106E900094F0000FF6D15DF8044B704730010010FC
:106EA0001C7C02400002002010B4124B1B68082B0F
:106EB00002D1114B00221A60104B93F8C621002119
:106EC000032A83F8381205D0D3F8B82112B15DF83F
:106ED000044B704703F588736FF0020253E8001FFC
:106EE00001EA020043E8000494F0000FF6D15DF8D7
:106EF000044B7047300100101C7C0240000200204F
:106F000010B4124B1B68082B02D1114B00221A60DF
:106F1000104B93F8B6210021032A83F8381205D0CC
:106F2000D3F8A82112B15DF8044B704703F58873BC
:106F30006FF0010253E8001F01EA020043E8000479
:106F400094F0000FF6D15DF8044B7047300100104B
:106F50001C7C024000020020704700BF00B5094AB7
:106F600083B0002301218DF80730ADF805308DF88E
:106F7000041001A882F8093182F81431984703B04F
:106F80005DF804FB0002002038B5564B6A469A4271
:106F900061D3554C94F82433022B06D094F8243353
:106FA000012B02D04FF4054038BDD4F82C3323B167
:106FB0004E4BD4F828239A4279D04D4AD4F83C124B
:106FC0004C4BC4F82C33914261D0F433012253E886
:106FD000001F104643E8000595F0000FF7D1BFF3FE
:106FE0005F8F002960D1D4F8343313449342C4F83E
:106FF000343306D14049414AC1F800354FF480632B
:1070000053603F493F4805F08DFB48B3A0F5700041
:10701000A0F54060352844D8352842D8DFE800F094
:107020005E5B41585555524F4C414141415B415B7C
:107030003E3E3E4141414141414141414141414149
:10704000585258551E4941494141414141414141F0
:107050005E5255415B5B48F2195038BD48F21750FB
:10706000D4F83433013BC4F834333BB92249234AC2
:10707000C1F800354FF48063C2F88430BFF35F8FEE
:107080000023C4F8303300288ED1D4F82C33184AAA
:1070900016491A60C4F82813002038BD48F2705011
:1070A000DEE748F21650DBE748F2045038BD002016
:1070B00038BD48F20150D3E748F20250D0E748F219
:1070C0007150CDE748F21450CAE748F21150C7E7B3
:1070D00048F21050C4E748F20350C1E748F2135099
:1070E000BEE700BF00E00320000200206572E54B10
:1070F0006169614D3C04002000A0025000E100E005
:107100005C170020400400202DE9F04F164683B0A4
:10711000B142DDE90C920F4605469A46C0F0B580B3
:107120000B464FF00108B3FBF6F39E4208F101084D
:10713000F9D9D04538BFD04612F00103019302D1EE
:10714000B9F1000F63D1AA68012403E00AF1FF3A04
:1071500006FB04F4BAF1010FF8D8B7FBF4F39E4232
:10716000F6D9DFF82CA106E0B442B4FBF6F321D344
:107170001C46B7FBF3F30AEB030104FB137791F80A
:1071800014B0BBF10A0F2FD0511C2B68A96003F873
:1071900002B0D5E901329A42E6D3002AE4D06B6905
:1071A0002968286998470023B442AB601A46B4FBAB
:1071B000F6F3DDD2019BA3B1B9F1000F11D0202667
:1071C00000244F46B84507F1FF370AD2AB682A685A
:1071D000591CA960D654D5E901329A4236D2002F03
:1071E000F0D103B0BDE8F08F511C2B68A9604FF0BF
:1071F0000D019954D5E901329A42C5D3002A2FD006
:1072000029686B692869984701210022BDE7930727
:1072100033D44FF0200BCDF83090AA68B1460C9EC5
:107220000024B04502F101030BD22968AB6001F8DC
:1072300002B0D5E901329A4206F1FF3612D2002E91
:10724000EFD10C964E46DDF830907DE7002AC6D08F
:107250006B69296828699847AC60002FB2D1C0E7F4
:10726000012192E7002AEAD06B69296828699847CA
:10727000AC600022002ED4D1E3E7BAF1000F0CBFBE
:107280004FF0300B4FF0200BC5E74FF0010850E7EF
:1072900080EC02002DE9F04F0C460D7885B00646D3
:1072A000924610E00A2D00F0B380B268511C33689A
:1072B000B1609D54D6E901329A4280F09F802578D2
:1072C000002D00F086800134002D00F08280252DF5
:1072D000E8D1234600271C4613F8012B2D2A00F085
:1072E0008780302A00F087802B2A79D02A2A00F064
:1072F0009C80A2F13003092B4FF000050BD805EB61
:10730000850502EB450514F8012FA2F13003092B86
:10731000A5F13005F3D92E2A00F09380002301E077
:1073200014F8012F02F0FB016829F9D0252A00F09A
:10733000A781583AD1B2202946D8202A44D8DFE87C
:1073400012F0670143004300430043004300430041
:107350004300430043004300490129014300430027
:10736000430043002901430043004300430043001E
:107370004300DD0043004300A500430097004300A5
:10738000430067014FF0010B9B4538BF9B46002D22
:1073900040F08181B80740F1A181002B40F0A58227
:1073A0001D46B8F1000FC0F269827A0700F17F82B2
:1073B00007F00302022A00F03182CDE9005741466E
:1073C0000A223046FFF7A0FE01342578002D7FF415
:1073D0007AAF337B002B40F0468105B0BDE8F08FDB
:1073E0001C4613F8012B2D2A47F004077FF479AFD0
:1073F00047F001076FE747F002076CE7002A3FF408
:107400005EAF73693168306998470023B36056E70F
:10741000B3683268581C0D21B060D154D6E90132EE
:107420009A4280F01681511C41E7DAF800301A1DAB
:10743000CAF8002062781D682E2A04F101047FF446
:107440006DAF6278A2F13003092B04F101044FF013
:1074500000033FF667AF03EB830302EB430314F82B
:10746000012FA2F130010929A3F13003F3D959E723
:10747000DAF80020111DCAF8001011683046CDE975
:1074800000570A22FFF740FE01349EE7DAF8003089
:107490001A1DCAF80020D3F8008017F001030293E8
:1074A00040F01E81B8F1000F00F00F82404606F058
:1074B000D9FB0746BD4240F27A81002D00F077816A
:1074C0004FF0200905E0BD4200F07181002D00F071
:1074D0006E81B3683268591CB16002F80390D6E936
:1074E00001329A4205F1FF35EDD3002AEBD07369E2
:1074F0003168306998470023B360E4E7DAF8002088
:10750000131DCAF80030B36831681768581C302260
:10751000B060CA54D6E901329A4280F09D81511C74
:107520003368B16078219954D6E901329A4280F0EB
:107530009C810F2F03D93B461B090F2BFCD8DFF88A
:1075400014934FF080554FF00D0805E00F2D4FEAD2
:1075500015137FF639AF1D46B7FBF5F309EB0301B1
:1075600005FB137791F814B0BBF10A0F5ED0511CE4
:107570003368B16003F802B0D6E901329A42E5D32C
:10758000002AE3D073693168306998470023B360FB
:107590001A46DBE7DAF80020111DCAF80010D2F80D
:1075A000008088EAE872A2EBE872092A7FF7EAAE67
:1075B000A7484FF0010B11466329A0FB02C20BF153
:1075C000010B4FEAD202F6DC9B4538BF9B46002DEB
:1075D00061D1DFE6DAF800301A1DCAF800201D7804
:1075E0000A2D00F07681B268531C3168B3608D5467
:1075F000D6E901329A42FFF4E7AE002A3FF4E4AE46
:1076000073693168306998470023B3600134DCE660
:10761000DAF80020111DCAF8001011683046CDE9D3
:1076200000571022FFF770FD0134CEE63368511C7D
:10763000B16003F80280D6E901329A4297D3002A5A
:1076400000F0458131687369306998470121002253
:107650008EE7002A00F0E08031687369306998474E
:107660000121002223E6B268002A3FF4B6AE736916
:107670003168306998470023B36005B0BDE8F08FEA
:10768000B3683168581CB060CA54D6E901329A42D6
:10769000B3D2013499E6B8F1000F66DB7A0764D4FF
:1076A000B80702D5002B3FF47CAEF9073FF579AE61
:1076B000A5B14FF020090293AB4580F03181B3684A
:1076C0003268591CB16002F80390D6E901329A423F
:1076D00005F1FF354BD2002DEED1029B002560E66F
:1076E00098F80030002B00F01D81B2684746C8F1C1
:1076F00001094FF00D0B02E017F8013FC3B10A2B4F
:1077000009EB07083ED0501C3168B0608B54D6E9B5
:1077100001329A42F0D3002AEED0736931683069A1
:1077200098470023B3601A4617F8013F002BE6D1B3
:1077300045457FF649AEB268202702E045453FF453
:1077400043AE3368511CB1609F54D6E901329A426E
:1077500005F1FF35F2D3002AF0D073693168306942
:1077600098470023B3601A46E8E7013D98E7002AEE
:10777000B1D073693168306998470023B360002D38
:107780009AD1AAE73168501CB06001F802B0D6E97E
:1077900001128A42B7D3002A00F0C08003933168F7
:1077A000D6E9040398470298039B0022ACE798F8B7
:1077B0000050002D3FF408AEB2684FF00D0904E010
:1077C00018F8015F002D3FF4FFAD0A2D11D0511CB8
:1077D0003368B1609D54D6E901329A42F0D3002A51
:1077E000EED073693168306998470023B3601A4658
:1077F000E6E73368511CB16003F80290D6E9013224
:107800009A42E4D3002A00F08780316873693069B6
:10781000984700220121DBE7012148E5002B7FF496
:10782000CCAD9DB14FF030090293AB457CD2B3682B
:107830003268591CB16002F80390D6E901329A42CD
:1078400005F1FF3555D2002DEFD1029B0025B4E59F
:10785000CDCCCCCC80EC0200002A5BD031687369BF
:1078600030699847012100225AE6002A3FF461AEB0
:10787000736931683069984700225AE6B268511C32
:10788000B16031682D208854D6E901128A42C8F1CE
:107890000008FFF48DAD002A3FF48AAD02933168F1
:1078A000D6E9040398470023B360029B80E5B268E1
:1078B000511CB16031682B208854D6E901128A42EC
:1078C000FFF476AD002AE9D172E54746F2E50121E1
:1078D0004EE6B3683268581C0D21B060D154D6E929
:1078E00001329A420ED2531C7FE6F9073FF559AD9B
:1078F000F4E6002AA7D073693168306998470023FD
:10790000B360A0E792B17369316830699847012389
:1079100000226AE6012103E6012159E70298F3E615
:10792000029B3EE5984603E7029B46E501235CE6A1
:107930000EB400B582B004AB0449019301AAFFF76D
:10794000A9FC02B05DF804EB03B07047B4E5020097
:107950000EB400B582B004AB0449019301AAFFF74D
:1079600099FC02B05DF804EB03B07047B0E8020088
:107970000CB430B585B008AB816853F8045B019353
:10798000D1F848315B07044602D5CB7E082B09D1DC
:107990002069294601AAFFF77DFC05B0BDE830400B
:1079A00002B0704702221B31684606F0DBF8A3687C
:1079B000DA7E082A0AD02B4A2B4902920822039128
:1079C000DA76206929496A44FFF7B2FF01AA2069E3
:1079D0002946FFF75FFC9DF80030A268002B35D0E8
:1079E000D17E994211D01F49029103F12F006D21E0
:1079F00033258DF80D00ADF80E108DF80C50D376B0
:107A000020691A4902AAFFF793FF9DF80130002B65
:107A1000C3D0A268117F9942BFD045F61B3103F154
:107A20002F00ADF8081034256D218DF80B00ADF84E
:107A30000C108DF80A50137720690C4902AAFFF741
:107A400077FF05B0BDE8304002B07047D3762069BB
:107A5000074A0649FFF76CFF9DF80130002B9CD0C8
:107A6000D7E700BF1B5B313B33376D00B4E5020045
:107A7000A4EC02002DE9F04F4C4FDFF8608187B095
:107A800007F5B965A7F54E7B002672B63A68DBF8B4
:107A90003830002A5BD0D7F80490454AB9F1000F7E
:107AA00008BF914603B962B6A5F5806AAA45534658
:107AB0006BD24FF4806403E0AB42A4F1040403D220
:107AC00053F8042B4245F7D03A4A05903346082133
:107AD000FFF74EFF0598384A4B460821FFF748FF4D
:107AE0000598002C37D16A1E534600920821334A6C
:107AF0000590FFF73DFF324B059893F80812F2B25C
:107B0000914240D0D3F80C122E4B4FF00042F2407D
:107B10000A422D4A08BF13462C4A05900821FFF758
:107B200027FF06EB46030BEB83030598284AD3F89F
:107B300040330821FFF71CFF05980136032E07F19B
:107B40000C0705F5A065A0D107B0BDE8F08F002BAC
:107B5000F3D162B6F1E7642303FB04F39B0A4FF40D
:107B600080616A1ECDE901340391534600920821D9
:107B7000184A0590FFF7FCFE114B059893F8081280
:107B8000F2B29142BED1144BC6E70A4A0590334681
:107B90000821FFF7EDFE0598074A4B460821FFF73D
:107BA000E7FE4FF4806405986423D8E73805002089
:107BB000D8E50200E0E50200ECE5020038E602004C
:107BC000F8120020C0E50200CCE5020050E60200F9
:107BD00060E60200FCE50200B8E502000ED0ADDE72
:107BE0000CB470B584B008AB816853F8045B0193A2
:107BF000D1F848315B07044601D5CB7E4BB92069EB
:107C0000294601AAFFF746FB04B0BDE8704002B068
:107C100070471B310222684605F0A4FFA368294A79
:107C200029490026DE762069FFF782FE01AA206935
:107C30002946FFF72FFB9DF80030A268002B35D0B6
:107C4000D17E994211D02149029103F12F006D217B
:107C500033258DF80D00ADF80E108DF80C50D3764D
:107C60002069194902AAFFF763FE9DF80130002B35
:107C7000CAD0A268117F9942C6D045F61B3103F1E4
:107C80002F00ADF8081034256D218DF80B00ADF8EC
:107C90000C108DF80A50137720690B4902AAFFF7E0
:107CA00047FE04B0BDE8704002B07047D37620694B
:107CB000044A0549FFF73CFE9DF80130002BA3D094
:107CC000D7E700BFA4EC0200B4E502001B5B313B28
:107CD0000EB400B582B0039921B104AB01AA01939F
:107CE000FFF7D8FA02B05DF804EB03B0704700BFAD
:107CF0000CB470B584B008AB826853F8046B019380
:107D0000D2F848315B07044603D5D37E8B420D463B
:107D100009D12069314601AAFFF7BCFA04B0BDE8D9
:107D2000704002B0704702F11B016846022205F064
:107D300019FFA368002D5FD0DA7EAA4211D0324A23
:107D40000292332205F12F018DF80C206D228DF85F
:107D50000D10ADF80E20DD7620692C4902AAFFF740
:107D6000E7FD01AA20693146FFF794FA9DF800303B
:107D7000A268002B35D0D17E994211D022490291C0
:107D800003F12F006D2133258DF80D00ADF80E1095
:107D90008DF80C50D37620691C4902AAFFF7C8FD64
:107DA0009DF80130002BB9D0A268117F9942B5D05F
:107DB00045F61B3103F12F00ADF8081034256D2175
:107DC0008DF80B00ADF80C108DF80A501377206970
:107DD0000E4902AAFFF7ACFD04B0BDE8704002B046
:107DE0007047D37620690A4A0849FFF7A1FD9DF83C
:107DF0000130002B92D0D7E7DD762069044A034991
:107E0000FFF796FDADE700BF1B5B313BB4E5020019
:107E1000A4EC02002DE9F04FDFF804920B7819F87A
:107E200003308BB013F0080302910746069200F06E
:107E3000F0800B46C1F1010101EB030B13F8012F98
:107E400019F802201207F7D4069AD3B20593134605
:107E5000029A9B1A0793029C204605F003FFBB6819
:107E60005E7E069BA0EB0B00A6EB0308404577D98E
:107E7000079ACDF804B00BF1FF33C4F10105234498
:107E8000A5EB0B0EA2EB0B0C0EEB030405EB030AA8
:107E90005A7819F80210013309070CEB030002D5D8
:107EA0000A2A59D0A0468642EED8DDF804B0029BDB
:107EB0000BEB080A5344444604933E69B2682AB166
:107EC00073693168306998470023B3602CB300238D
:107ED0000393D84609AB786801930168CE6802998C
:107EE00022464144B0470999019B39B1039A641A6B
:107EF0000A44039211D00BEB0208ECE7B868017852
:107F00000329E8D0D0F848219106FBD5B0F84811F4
:107F10006FF34511A0F84811DDE7049B1B7819F8B1
:107F20000330180758BFD34609D5029B534405EBCD
:107F3000030B13F8012F19F802201207F7D4364962
:107F40003869FFF705FD059B002B84D0334938695C
:107F50001A46FFF7BDFE7EE7DDF804B00493ACE7F8
:107F600000283AD0029A0BF1FF331344002402E0B8
:107F70000134A04231D013F8012F0A2A0BEB04057B
:107F8000F6D13E69B2682AB17369316830699847A1
:107F90000023B360A4B14FF000090DF1240AD846C4
:107FA0007868029902684144D66853462246B04731
:107FB0000999F9B1641A894402D00BEB0908EFE77B
:107FC00015493869FFF7C4FC059B05F1010B23B186
:107FD000124938691A46FFF77BFE029B38695B44F9
:107FE0001946FFF775FE38690B49FFF7B1FC0BB076
:107FF000BDE8F08FB8680378032BD1D0D0F84831B2
:108000009E06FBD5B0F848316FF34513A0F8483110
:10801000C6E79B4618E700BFB0E8020074E602001E
:1080200066F102002DE9F047074686B0504805F09A
:1080300019FE05464F4805F015FEBB684E495B68C2
:108040004E4A00912D1A08213846FFF791FCBB6873
:108050005868ADB2002800F0888005F003FE84B2B5
:10806000454805F0FFFDBB689968204482B211B114
:108070003846FFF7CFFE424A00213846FFF7B0FDF1
:108080003C4805F0EFFD841C2C44394B3D4A0093DD
:10809000A4B2234608213846FFF76AFCE21C3A499D
:1080A00092B23846FFF7B6FEBB68DE68002E52D0AB
:1080B00000242546204632780134230102A9103BD2
:1080C0008AB173689847029898B10DF1080805F0D5
:1080D000C9FDA842EED9D8F8000000283ED005F02E
:1080E000C1FD85B2E6E77268D05802EB03080028AC
:1080F000EDD1012C2FD0254ADFF888A00021384689
:1081000005F10209FFF76CFD1FFA89F94FF000082D
:1081100014E073689847029BEBB102AC082100930E
:10812000524638464B46FFF723FC61686A1D92B2FF
:108130003846A9B1FFF76EFE08F1010833784FEA1F
:10814000081202A94046002BE3D17468A35804EB3F
:108150000814002BE2D106B0BDE8F0870546A9E778
:108160000B493869FFF7F4FBE6E7044678E700BF00
:10817000A8EC0200B4EC0200B8EC02007CE60200BD
:1081800084E6020090E6020098E60200ACE60200F7
:10819000B0E802002DE9F04F8368D3F84831C3F30B
:1081A00040089B078DB06DD4012965D8374C384BFA
:1081B000384A1B1BA2FB03121209172B0B923BD947
:1081C000DFF8E4A081462368E268D3F808E0A768F6
:1081D000099272B62368304A1E685968926B8E42C3
:1081E00045D88E1B02B962B694F810B06369642555
:1081F00005FB06FC082105FB0EF55246B5FBF7F51D
:1082000048460A95BCFBF7FCBBF1000F17D1234D84
:10821000CDF814E0CDE906750A9DCDE90375099DF9
:108220000095CDE901C6FFF7A3FB0B9B08F1010800
:10823000984504F11804C6D30DB0BDE8F08F184A74
:10824000CDF814E0CDE906720A9ACDE90372099AD5
:108250000092CDE901C652460821FFF789FB0B9B2E
:1082600008F10108434504F11804ACD8E4E7A36819
:1082700001330B449E1BB5E70A4A02210DB0BDE84D
:10828000F04F35E50DB0BDE8F04FCBE670F20200DF
:1082900088F20200ABAAAAAA000200204CE7020062
:1082A00058E70200BCE60200D0E602008368D3F87B
:1082B000482192070FD401290ED110B50446084A6F
:1082C00008490069FFF734FBA36850225A76A36877
:1082D00018221A7610BDA5E65B68034A022107E55D
:1082E000BCEC0200B4E5020064E7020030B484682C
:1082F000D4F848219307C2F340050AD401290AD1D2
:10830000C4F83851C3685B681B681B689D6030BC4B
:10831000704730BC86E66368014A30BC0221E7E45E
:1083200064E7020070B58568D5F84841A3070A469E
:1083300084B0C4F3400117D4012A19D1C268D5F81A
:10834000383154680E4A24682668A568367A019642
:10835000642404FB06F4B4FBF5F4E4B20295009443
:10836000FFF73EFC04B070BD04B0BDE8704059E6B4
:108370006B68044A022104B0BDE87040B8E400BF55
:1083800080E7020064E7020010B5012982B00446CC
:108390000BD002290B4614D08268D2F84811890705
:1083A00003D4022B06D802B010BD204602B0BDE8AF
:1083B000104037E65368084A022102B0BDE8104079
:1083C00096E453680193054C1368054A0094FFF73F
:1083D0008FFC02B010BD00BF64E70200C4E70200DA
:1083E000B8E702002DE9F04F8368D3F84821C2F3C3
:1083F0004009920789B000F19F80012940F0B680C2
:10840000D3F84041002C00F08480DFF88CB1824624
:10841000E788657907FB05F0A0F1040C0422BCF1A4
:10842000080FB2FBF7F207FB02F1C1F104013E466F
:1084300075D9042F98BF092500F283802346013A9D
:108440001B68FCD1A7EB0108A84528BFA846DDB1F1
:10845000002604311944039305AB9819424605F0F0
:1084600081FBA5EB0805039BAF4246441B68B84659
:108470004FF0000128BFA846002DEAD1E6886579B3
:1084800006FB05F0A0F1040C9DF81C50DAF808700A
:1084900005F10A020D236245B3FBF6F306FB03F177
:1084A000C1F10D0107F1A0073DD90D2EA0F10D0579
:1084B00002D8013B2468FCD1721AAA4228BF2A467E
:1084C000BDB14FF000080431214407EB0800AD1A9C
:1084D000039205F047FB039A2468B54290444FF09D
:1084E00000012A4628BF3246002DECD1DAF8087088
:1084F000A037069C00974B465A460021504609F18A
:108500000109FFF76DFB14B1B9F1080F80D1DAF85A
:108510000830002283F8A02009B0BDE8F08F042FB6
:1085200019D865468AE70D2E05F10105C1D9721AE1
:10853000AA4228BF2A46C4E7FFF774FD09B0BDE888
:10854000F08FA7EB0108B8F1090F28BF4FF0090819
:10855000234609257CE7A7EB0108E04528BFE04654
:10856000BCF1000F0AD06546234671E75B68094AF3
:108570000221FFF7BDFB09B0BDE8F08FDAF8087003
:108580000D23B3FBF6F306FB03F1C1F10D01A03798
:108590008BE700BF64E70200DCE702008368D3F8E2
:1085A0004821920708D4012907D1B3F8482142F0A5
:1085B0000802A3F84821704734E55B68014A0221AC
:1085C000FFF796BB64E7020010B48368D3F8482134
:1085D000C2F3400492070AD401290BD1B3F8482111
:1085E00064F3C302A3F848215DF8044B70475DF8BB
:1085F000044B17E55B68034A5DF8044B0221FFF763
:1086000077BB00BF64E7020070B58568D5F84841C4
:10861000A30782B0C4F3400611D4022913D81AD09C
:10862000D5F84811114C124B124A11F0080F18BF1F
:108630002346314602B0BDE87040FFF7D1BA02B020
:10864000BDE87040EEE46B680B4A022102B0BDE861
:108650007040FFF74DBB53680193084C1368084AFC
:108660000094FFF745FB02B070BD00BFE8E70200D1
:10867000ECE70200F0E7020064E70200C4E7020052
:10868000B8E7020070B5012982B0044610D08568B1
:10869000D5F84861B3070BD402290ED15368019372
:1086A0000A4C13680A4A0094FFF722FB02B070BD1F
:1086B000204602B0BDE87040B4E46B68054A022170
:1086C00002B0BDE87040FFF713BB00BFC4E7020073
:1086D000B8E7020064E702008368D3F848219207F4
:1086E00008D4012907D1B3F8482142F00402A3F8C5
:1086F0004821704796E45B68014A0221FFF7F8BA07
:1087000064E7020010B48368D3F84821C2F3400440
:1087100092070AD401290BD1B3F8482164F38202ED
:10872000A3F848215DF8044B70475DF8044B79E4E9
:108730005B68034A5DF8044B0221FFF7D9BA00BF1A
:1087400064E7020001290AD0022904D18368D3F822
:1087500048319B0703D4024A0221FFF7C9BA61E4FA
:1087600004E80200022910B5044604D18368D3F856
:1087700048319B070BD42069064A0749FFF7D8F810
:108780002069064A0449BDE81040FFF7D1B8BDE8AA
:10879000104047E4C4EC0200B4E50200C8EC02005B
:1087A0002DE9F0478368D3F84831C3F340059B07B0
:1087B00088B046D401293DD8244C254B254F1B1B9E
:1087C000A7FB0327172B4FEA171730D9DFF88CA028
:1087D0000646A9464FF064082268D4F808C0137909
:1087E000106862680693ACEB000003EB8303ACEB0C
:1087F0000202A18A0792C0B203EB830303900492A2
:10880000009101359B00CDF80490B3FBF2F308FB17
:1088100000F00593B0FBF2F0236902905246082164
:108820003046FFF7A5F8AF4204F11804D4D808B0D9
:10883000BDE8F087084A022108B0BDE8F047FFF71D
:1088400057BA08B0BDE8F047FFF7ECBB88F202006A
:1088500088F20200ABAAAAAABCE6020024E8020041
:108860002DE9F04FBA4ED6E94332134089B06FD0AC
:10887000DFF8F4A206F58C7713F0012200F0968061
:1088800092FAA2F2B2FA82FB5C460F2C63D8B14D89
:10889000270105EB0418EB59B8F80C20D8F80410A0
:1088A00006A8984764F07F0900B9E85104F008056C
:1088B000A94B1B68082B02D1A84B82221A60D6F85C
:1088C0000C210799012386F8383203FA0BF322EAC8
:1088D0000303D8F80820C6F80C310A44B9F1000F98
:1088E000C8F80820069AC0F2DF80002D64D104EB9E
:1088F00084039B0003F1804303F51C33A500C3F8F8
:108900000027C3F80417944B1B68082B5FD028235B
:108910002B44DBB203F1804303F51C3301221A60C0
:10892000BFF36F8FBFF34F8F8D4B8E4903F1500212
:1089300013EA290338BF134633F8142002F18042AA
:1089400002F51C3201E00B6813B91368002BFAD052
:1089500009B0BDE8F08FA4F11005EBB205F00F04EB
:10896000039315F008034FEA041207EB04184FFABB
:1089700085F9019340F0B08004F594735AF82330E0
:10898000BA58D8F804100293154606A8B8F80C2077
:10899000A847069A22B1079A029B934200F2AF8041
:1089A000019D002884D1C8F8000081E793FAA3F361
:1089B000B3FA83FB5C4668E76B4BC3F8A027C3F8A8
:1089C000A417654B1B68082B4FEA84059FD1674BA2
:1089D0001B68002B9BD1B9F1000F6149DFF8A0E1C2
:1089E0006348DFF8A0C1634A634FB4BF0423282360
:1089F0001D4401F15008EDB205F18045A8BF414684
:108A000001EB440805F51C35002601240660BFF380
:108A10006F8FBFF34F8F2C60BFF36F8FBFF34F8FFC
:108A2000DEF80030D2F808A0ACFB03139B0C4FEA31
:108A300043099168AAEB010121F07F418945F8D8EB
:108A400001680029E2D0C3EB031AD2F808B04FEA5C
:108A50004A0A9168ABEB010121F07F418A45F8D8C1
:108A6000396889060BD4D2F808A09168AAEB0101F5
:108A700021F07F418945F8D839688906F3D5D2F8C5
:108A800008909168A9EB010121F07F418B42F8D851
:108A9000B8F8003003F1804303F51C331B68002B4A
:108AA000B4D009B0BDE8F08F002D4AD104EB8403A7
:108AB0009B0003F1804303F51C33A500C3F8002697
:108AC000C3F80416244B1B68082B03D1274B1B68E3
:108AD000002B80D004231BE7DAF8C034D8037FF5DD
:108AE0004FAFD8F80070B8F80C20D8F80410019DEA
:108AF00006A80023B84700287FF4DAAE53E7012325
:108B000003FA0BF302221D4D88F80E20DB4355E8D3
:108B1000001F01EA030045E8000494F0000FF6D1BD
:108B2000062303998DF817208DF814308DF8161050
:108B3000002305A89847D6E9432313407FF49CAE51
:108B400006E7094BA500C3F8A026C3F8A416B9E7A9
:108B500000020020A8030020300100101C7C02400D
:108B600080EC0200007102400070024034010010ED
:108B70000471024010E000E0747402401003002011
:108B80000000002083DE1B4370B5204B1B68082BC0
:108B900082B002D11E4B00221A601E4C94F846315E
:108BA0000022032B84F8382221D0D4F8381119B1CF
:108BB000FFF756FE02B070BD04F588736FF4802293
:108BC00053E8000F00EA020543E8005696F0000F54
:108BD000F6D102230622ADF806308DF8042001A854
:108BE000884794F83832002BE2D002B070BD04F50B
:108BF00088746FF4802354E8002F02EA030144E8EC
:108C0000001090F0000FF6D1D2E700BF3001001045
:108C10001C7C02400002002070B5204B1B68082B12
:108C200082B002D11E4B00221A601E4C94F896317D
:108C30000022032B84F8382221D0D4F8881119B1EE
:108C4000FFF70EFE02B070BD04F588736FF40002EA
:108C500053E8000F00EA020543E8005696F0000FC3
:108C6000F6D107230622ADF806308DF8042001A8BE
:108C7000884794F83832002BE2D002B070BD04F57A
:108C800088746FF4000354E8002F02EA030144E8FB
:108C9000001090F0000FF6D1D2E700BF30010010B5
:108CA0001C7C02400002002070B51F4B1B68082B83
:108CB00082B002D11D4B00221A601D4C94F88631FF
:108CC0000022032B84F8382220D0D4F8781119B16F
:108CD000FFF7C6FD02B070BD04F588736FF4800223
:108CE00053E8000F00EA020543E8005696F0000F33
:108CF000F6D106238DF80430ADF8063001A8884778
:108D000094F83832002BE3D002B070BD04F58874BB
:108D10006FF4800354E8002F02EA030144E80010D6
:108D200090F0000FF6D1D3E7300100101C7C024018
:108D30000002002070B5204B1B68082B82B002D1C6
:108D40001E4B00221A601E4C94F876310022032B31
:108D500084F8382221D0D4F8681119B1FFF780FDCA
:108D600002B070BD04F588736FF4001253E8000F71
:108D700000EA020543E8005696F0000FF6D10523FD
:108D80000622ADF806308DF8042001A8884794F833
:108D90003832002BE2D002B070BD04F588746FF455
:108DA000001354E8002F02EA030144E8001090F099
:108DB000000FF6D1D2E700BF300100101C7C02404A
:108DC0000002002070B5204B1B68082B82B002D136
:108DD0001E4B00221A601E4C94F866310022032BB1
:108DE00084F8382222D0D4F8581119B1FFF738FD91
:108DF00002B070BD04F588736FF4801253E8000F61
:108E000000EA020543E8005696F0000FF6D104236D
:108E10000622ADF806300DEB03008DF804208847DC
:108E200094F83832002BE1D002B070BD04F588749C
:108E30006FF4801354E8002F02EA030144E80010A5
:108E400090F0000FF6D1D1E7300100101C7C0240F9
:108E50000002002070B5204B1B68082B82B002D1A5
:108E60001E4B00221A601E4C94F856310022032B30
:108E700084F8382221D0D4F8481119B1FFF7F0FC5A
:108E800002B070BD04F588736FF4002253E8000F40
:108E900000EA020543E8005696F0000FF6D10323DE
:108EA0000622ADF806308DF8042001A8884794F812
:108EB0003832002BE2D002B070BD04F588746FF434
:108EC000002354E8002F02EA030144E8001090F068
:108ED000000FF6D1D2E700BF300100101C7C024029
:108EE0000002002070B5204B1B68082B82B002D115
:108EF0001E4B00221A601E4C94F836310022032BC0
:108F000084F8382221D0D4F8281119B1FFF7A8FC31
:108F100002B070BD04F588736FF4003253E8000F9F
:108F200000EA020543E8005696F0000FF6D101234F
:108F30000622ADF806308DF8042001A8884794F881
:108F40003832002BE2D002B070BD04F588746FF4A3
:108F5000003354E8002F02EA030144E8001090F0C7
:108F6000000FF6D1D2E700BF300100101C7C024098
:108F7000000200202DE9F0435D4BD3F86C44C3F8A8
:108F80006C4483B0BFF36F8FBFF34F8F594B1B6897
:108F9000082B00F09C80DFF87881002C4AD0564DD9
:108FA000544E564F94FAA4F2B2FA82F30F2B9C4619
:108FB00048DC03F00F0ED8F80C1135F81E0000F154
:108FC000804000F51C30012202FA03F302681943C5
:108FD0004CF0800924EA0304C8F80C11F446D2B11D
:108FE00000220260BFF36F8FBFF34F8FB9F1800F84
:108FF000316851D00829424908BF3A6001EB0E128E
:109000000020927B88F83802032A4FEA0E1E33D0E4
:1090100051F80E2082B3D8F81021134008D106224F
:109020008DF806908DF807308DF8042001A8984738
:10903000002CB7D198F838320BB9FFF711FC03B008
:10904000BDE8F083D8E94321012000FA03F31A4375
:1090500024EA03040B40C8F80C21E9D1ACF110025A
:1090600006218DF807008DF806208DF8041001A860
:109070009847002C96D1DDE7012202FA0CFC9839C2
:109080006FEA0C0C51E8002F02EA0C0041E8000ED8
:109090009EF0000FF6D1BEE7082908BF3A6098F8A5
:1090A000B6210021032A88F8381203D0D8F8A82165
:1090B000002AB0D1134A6FF0010152E8000F00EA14
:1090C000010C42E800CE9EF0000FF6D1A3E70E4B54
:1090D0001B68002B7FF45FAF0C4AD2F8103203F00C
:1090E000011123F00113C2F810121C4353E700BF13
:1090F000007002403001001080EC02001C7C024035
:10910000A80300201003002034010010F8120020F2
:10911000000200202DE9F0410546806882B000265B
:1091200080223146A0308DF8036004F029FD2869C3
:109130004A49FEF7CDFD2C69A26822B16369216816
:1091400020699847A660464E4FF47A7846F00106AB
:109150000024686803680DF103011F69012201AB57
:10916000B847019B611CC3B19DF80320AB681B2A63
:1091700005D093F8A0001B28EBD1522A1CD0234421
:10918000CCB2092C83F8A020E3D9AB68002283F885
:10919000A020042002B0BDE8F0814FF6C010B04717
:1091A000019B002BD5D108F1FF371FFA87F8B8F1E2
:1091B000000FCED10D20EDE72344002083F8A0005E
:1091C000AF6897F8A1305B2B42D107F1A1060223CB
:1091D00002E0802B90B237D016F8014F00EB8002EE
:1091E000A4F130013B2C01EB4202D9B203F101039F
:1091F000EFD101310A065FFA81FC25D40CF1A002FF
:109200003A44ACEB020C002102E099B233061BD4C5
:1092100012F8014B01EB810304EB4303303B0CEBF1
:109220000206002CF1D1FA2928BFFA213975AB6862
:10923000FA288ABFFA2298759A75AB68002083F8DD
:10924000A00002B0BDE8F0810C2002B0BDE8F081C2
:1092500087F8A0000B2002B0BDE8F081E4EC02002A
:10926000F0EC0200F0B5012983B0044611D0836808
:10927000D3F84841A40744D4022947D853682A495F
:10928000019313680091294A0221FEF731FD03B0D2
:10929000F0BD8568FFF73EFF28BBA368244920691D
:1092A0001F7D9E7DFA22FEF713FD20692149FA22D7
:1092B000FEF70EFD2046FFF72DFFA0B9A3681A7D2B
:1092C0006A76A368D21B9B7D2B7612F0FF0225D114
:1092D0009B1B13F0FF02DAD02069174903B0BDE8E9
:1092E000F040FEF7F5BCA368144A50215976A368F4
:1092F000182119762046042103B0BDE8F040FEF79E
:10930000F7BC03B0BDE8F040FEF78CBE5B680C4ACA
:10931000022103B0BDE8F040FEF7EABC094920692C
:10932000FEF7D6FC2B7ED3E7C4E70200B8E70200C5
:1093300074E60200B4E80200C4E80200CCE80200CF
:1093400064E70200BCE802002DE9F04F994E426844
:10935000D6F814428BB0002C42D094F800C00CF127
:10936000FF33052B23D8DFE803F08367671A1A035E
:10937000EAB9914D95F83430002B00F0F78095F85C
:10938000283085F83420013B062B10D8DFE813F095
:1093900081041C04710148010F00E6031E0132B96B
:1093A0002379002B00F08483012B00F06083B6F852
:1093B0002822B6F82A3200219A42C6F8141200F088
:1093C000CB807E4B012253E8000FA0EB020143E863
:1093D000001494F0000FF6D1002900F09F800022C5
:1093E000774B53E8021F1FFAA1F4D888844202BFCA
:1093F000BFF32F8F00230DE0D8890444988984425D
:1094000028BF241AC1EA044443E802400028E8D1F6
:109410004FF001038DF815300691069B9DF815104D
:10942000C6F8283201F0FF0419B1D6F8184204EB4F
:109430001344C6F8144290E7A78A002A40F0FD8240
:109440005D4DA27D07EB870305EB83034FEA870998
:10945000B3F80880596801EB8808052A00F2E18218
:10946000DFE812F0B701E601A5026602A9012E02AB
:10947000002A6DD12379032B6AD8DFE813F052005C
:109480008B01690131019E4540F2658319460B68E5
:10949000013300F060834B88033301EB83039E4567
:1094A000C0F05983B1F804A0CA45ECD00888002860
:1094B000E9D088680130E6D0E388C6F84C125345FD
:1094C00040F03F833F4B186800283FF470AF5A6864
:1094D00052680424B4FBF2F402FB04F2C2F1040269
:1094E00001F0030422437FF462AFDA689142FFF493
:1094F0005EAF1B69CA1C9A423FF659AF0023009326
:10950000C468314A2F480423A04700287FF44FAF96
:1095100007EB870705EB870501232B740BB0BDE82C
:10952000F08F2848D6F834120568012323717DB1E5
:1095300043685A680823B3FBF2F402FB04F29A1A58
:1095400001F00304224303D1C468A14280F0E68302
:109550000023C6F830322AE7194B53E8021FC1EA4C
:10956000214143E80212002AF7D12AE795F8283072
:10957000072B09D8DFE813F0DF0308000800100408
:10958000F6032A002A000A04013B062B3FF60FAF20
:1095900001A252F823F000BF939C0200C99B020075
:1095A0007396020021960200AF9302005D9B0200B9
:1095B000CD950200F8120020000200204C1500207A
:1095C000101500207000002008ED0200B848D6F801
:1095D00034120768072385F828300023EB62002F38
:1095E0003FF4E5AE43685A680823B3FBF2F402FB8C
:1095F00004F29A1A01F0030422437FF4D8AEC4683F
:10960000A142FFF4D4AE0469CD1DA5423FF6CFAE12
:109610000092FC68A74AA04700287FF4C8AE7DE707
:109620006B8DA34803EB830305EB8303DA68002A01
:1096300040F0568304685968042385F82830002CCC
:109640003FF4B5AE43681A68013A11EA02037FF4A9
:10965000AEAEC568A942FFF4AAAE05690A44AA42A3
:109660003FF6A5AE24690122A04700287FF49FAEF3
:1096700054E7EA6A8E4853880768D6F83412B6F879
:1096800038C203339BB203249B0085F82840002F87
:109690003FF48DAE002B3FF48AAE44686568B3FB9F
:1096A000F5F405FB143401F003052C4302F0030527
:1096B0002C4301EB8C017FF47AAEC568A942FFF41C
:1096C00076AE056901EB030C0CF1FF3CAC453FF6AF
:1096D0006EAE0094FC68A04700287FF468AE1DE7DA
:1096E0007348D6F83412056800232371002D00F06A
:1096F000988343685A680823B3FBF2F402FB04F230
:109700009A4240F08C8311F0030407D1C268914261
:1097100004D30269CF1D974240F26A831020664D40
:10972000B6F838426B8D03EB83039A0005EB830395
:109730000027AF545A68C6F83422022259601C81AF
:10974000A6F8382200287FF403AF0BB0BDE8F08FF5
:109750005748D6F834120568002323710223A6F86F
:109760003832002D3FF4F4AE43681A68531E0B40A4
:109770007FF4EEAEC468A142FFF4EAAE04690A4485
:10978000013AA2423FF6E4AE2C690122A04700282C
:10979000DBD0DDE6484D2B78022B00F044832B7D97
:1097A000022B4FF0010200F03F83002386F82C22A9
:1097B000C6F83032FBE54149A369C6F83C32A1F155
:1097C0000C000023C6F84032FCF7ACFD00283FF443
:1097D000EEAD3748D0F800C00223A375221DBCF1BE
:1097E000000F19D0436859684FF0040BBBFBF1FE22
:1097F00001FB0EF142EA080EABEB01010EF0030E85
:1098000051EA0E0108D1C368434505D8036908F140
:10981000030E9E4540F2F382B4F806C04F4405EBB8
:1098200087056B89033BA3EB0C0CA5F80AC0BEE5CA
:109830001F48BCF1030FD0F800C00CBF052306235E
:10984000A37508F1040104F10802BCF1000F00F057
:10985000E8804368D3F804A04FF0040BBBFBFAFE8A
:109860000AFB0EFA42EA010EABEB0A0A0EF0030EF7
:109870005AEA0E0E40F0D580C3688B4200F2D180C8
:10988000036908F10708984500F2CB80CDF800E0A5
:10989000DCF80C805B46C04700283FF43FAE94F8EC
:1098A00016E0B4F806C0BEF1020FB7D9BBE000BFA6
:1098B00070000020F8EC020000020020401500209B
:1098C000BC48D6F84012D0F800C00623A375BCF1FE
:1098D000000F00F0A68043685A684FF0040BBBFBF2
:1098E000F2FE02FB0EF2ABEB020201F0030E52EAB3
:1098F0000E0240F09680C3689942C0F092800369DE
:1099000001F1030E9E4500F28C800092DCF80CA061
:10991000A94AB6F848825B46D0470028BFD108EB79
:10992000880805EB880501232B740BB0BDE8F08F88
:10993000B4F806C0226901214FEA8C03A175002A00
:109940003FF46CAF9B49D1F800E0BEF1000F3FF44B
:1099500065AF002B3FF462AF08F10C010846954952
:109960004968D1F804B0B3FBFBFA42EA00080BFBEC
:109970001A3A08F003085AEA08087FF44FAF8D49F5
:10998000C9688842FFF44AAF8A4903F1FF3A09697E
:1099900082448A453FF642AFCDF800800146DEF8AA
:1099A0000CA08448D04700283FF4B8AD77E723697E
:1099B0008048002BD0F800C014BF4FF0030E4FF0CA
:1099C000010E84F816E008F1080104F10C02BCF164
:1099D000000F3FF466AF4368D3F804A00423B3FB41
:1099E000FAFB0AFB0BFB42EA010AA3EB0B0B0AF0A2
:1099F000030A5BEA0A0A7FF454AFC3688B423FF65E
:109A000050AF036908F10B0898453FF64AAFCDF80F
:109A100000A0DCF80C800423C04700283FF47EAD92
:109A20003DE7B4F806C009EB070205EB8202138993
:109A300003339C44A2F808C0EEE6A37D5F4D022BE1
:109A400008D907EB870205EB8202E388118903330B
:109A50000B4413814FEA87094F44E38805EB8705E0
:109A6000C3F57F436A89FD3313446B819FE496F805
:109A70002C32BBB1B6F85072012F13D84F4D07EB03
:109A8000870C05EB8C0C4FF6FF799CF80030002B0F
:109A90004FD07B1C99B201291F46A6F850320CF119
:109AA000140CF2D908220021454804F069F87EE43C
:109AB000022323710992E36808920DF1160107A8A9
:109AC00003920793FCF72EFC00283FF470AC089932
:109AD00038488B88E38005680B882381002D3FF48C
:109AE00066AC43685C680423B3FBF4F704FB07F43B
:109AF0009C427FF45CAC8C077FF459ACC468A142F3
:109B0000FFF455AC0469039ACF1CA7423FF64FAC53
:109B10000092ED68284ABDF81640A84700287FF457
:109B200046AC264B04EB840403EB8404012323742A
:109B3000F4E4DCF80430D6F84C1203F5805E03F14F
:109B40000808002900F069814B88033301EB830189
:109B50007145FFF49CACC6F84C229AE76A8D9300DD
:109B60001448134405EB830307685968062385F8F6
:109B70002830002F3FF41BAC43685A680823B3FB1E
:109B8000F2F402FB04F29A1A01F0030422437FF478
:109B90000EACC468A142FFF40AAC0469CD1DA54215
:109BA0003FF605AC0092FC68064AA04700287FF407
:109BB000FEABB3E47000002008ED020000020020BC
:109BC0004415002000ED0200688DEB6A00EB800276
:109BD00005EB82024FEA800C516801F58054002B9E
:109BE00040F0EF8001F10802A24280F0F1804FF6D0
:109BF000FF7E1368013300F0EB805388033302EBE0
:109C00008303A34200F2E4809788774500F0018146
:109C10001788002F00F0FD809768013700F0F98069
:109C2000974CEA6227685088D6F83412032385F8E7
:109C30002830B6F83852002F3FF4B9AB033080B269
:109C40004FEA800C00283FF4B2AB636801EB85015A
:109C50005B68BCFBF3F542EA010003FB15C500F0AD
:109C6000030055EA00037FF4A2ABE3688B423FF6A2
:109C70009EAB20694B1E634483423FF698AB0023A2
:109C80000093FC687E486346A04700287FF48FABB2
:109C900044E495F8323043B1EB68002285F8322075
:109CA0001BB92A7C002A40F05B8195F833304BB118
:109CB0002B6A002285F8332023B995F82430002B35
:109CC00040F0E480002385F828306B85EB62FFF7D5
:109CD0006EBB634405EB8303DB68002B7ED06848D2
:109CE0000468D6F83412052385F828300223A6F834
:109CF0003832002C3FF45BAB43681A68531E0B40AC
:109D00007FF455ABC568A942FFF451AB05690A441D
:109D1000013AAA427FF6A6ACFFF749BB0469CF1D02
:109D2000A7423FF615AC0092EC68564AA0470028BF
:109D30003FF40BAD0CE42A7D2B78298EB2FA82F227
:109D40005209B3FA83F300205B09013185F833200F
:109D5000012285F832302986688585F8340085F837
:109D6000282098E76A8DD6F83442B6F8380202EB1C
:109D7000820305EB830302215F6818815C60C6F8EB
:109D8000347202FA01F3A6F83812E9E6012385F8E5
:109D9000283095F832307EE7688DEB6AB6F83822C5
:109DA0005C8800EB800105EB8101033249682244A5
:109DB000022701F58054A6F8382200FA07FC85F83E
:109DC00028705A88033203EB8202A242FFF40FAFDD
:109DD000604405EB8000C368002B80D128480468EC
:109DE000042385F82830002C7FF42CACFFF7DFBA71
:109DF0000094EC68244AA047D6F834128FE400910E
:109E0000DCF80CA05B464146D04700283FF486AB07
:109E100045E5A342DCD21A46EBE6414698E6092026
:109E20007DE408207BE40022930013449B00144847
:109E30000021E954EA1805685168002D3FF488AB09
:109E400043685A680823B3FBF2F402FB04F29A1A3F
:109E500001F0030422437FF47BABC4688C423FF6DD
:109E600077AB0469CF1DA7423FF672AB0092EC6856
:109E7000054AA04700283FF468ACFFF769BB00BF64
:109E800070000020F8EC020000ED020001231846EB
:109E90004FEA830C0CEB030105EB8101EA6A496888
:109EA000688501F58054002A5CD05088033002EBAD
:109EB000800294427FF60DAF4FF6FF7E10680130AE
:109EC0003FF407AF5088033002EB80008442FFF478
:109ED00000AF978877453ED01788002F3BD0976812
:109EE000013738D0214CEA6227685388D6F834020B
:109EF000032185F82810B6F83852002F3FF457AAEE
:109F0000033399B28B0000293FF451AA6168D1F85C
:109F100004C0B3FBFCF10CFB113100297FF447AA0C
:109F200000EB850142EA010080077FF440AAE06867
:109F300088423FF63CAA2469481E1844A0423FF6D6
:109F400036AA00200090FC680848A04700287FF44B
:109F50002EAAFFF7E3BA84427FF6BBAE0246ADE716
:109F6000184695E701F10802A3E700BF7000002042
:109F700038B5FDF709F8044638B9054D0123C5F891
:109F8000003503F0BFF8C5F80045204638BD00BFD6
:109F900000A0025038B50A4B0025C3F83053BFF378
:109FA0005F8F084C0123C4F8003503F07FF8C4F834
:109FB000005518B9BDE83840FCF7E6BF032038BDAE
:109FC0000002002000A0025010B54FF080414FF079
:109FD00080520020C1F80C01574BC1F81001C1F8A4
:109FE0003805D2F80414C3F82015D2F80814C3F8C1
:109FF0002415D2F80C14C3F82815D2F81014C3F89D
:10A000002C15D2F81414C3F83015D2F81814C3F86C
:10A010003415D2F81C14C3F84015D2F82014C3F834
:10A020004415D2F82414C3F84815D2F82814C3F8FC
:10A030004C15D2F82C14C3F85015D2F83014C3F8CC
:10A040005415D2F83414C3F86015D2F83814C3F894
:10A050006415D2F83C04C3F86805D2F840043749C7
:10A06000C3F86C050968D2F84424C3F870250829A0
:10A0700022D04FF08043D3F80024D20744BF6FF0C2
:10A080000102C3F800242E4AD2F8883043F470034A
:10A09000C2F88830BFF34F8FBFF36F8F4FF010239C
:10A0A000D3F80022002A21DBD3F80432002B1DDB79
:10A0B000244B254A1A6010BD244B1B68002BD8D1B5
:10A0C0002348244A244C04602449254BFB20C2F831
:10A0D00018050A681B68234822F00F0203F00F03DB
:10A0E00013434FF400720B600260C2E71E4A012363
:10A0F000C2F80435D2F80034002BFBD04FF0102307
:10A100001221194AC3F80012D2F80034002BFBD0F8
:10A110004FF010231221144AC3F80412D2F800346D
:10A12000002BFBD000231049C2F80435D1F80034CD
:10A13000002BFBD0FCF7DCF800C000403001001021
:10A1400000ED00E0000000200090D003340100107A
:10A150008C56004000F0004048810300E40E0040AF
:10A16000580200104096024000E00140F8B54A4C09
:10A170004A4A236892F85852C3F307239D4251D2AA
:10A1800072B64749A5608D6B00232361E36005B972
:10A1900062B6BFF34F8F92F8083203EB430501EB31
:10A1A00085055C00D5F84053002D51DB1C4401EBC4
:10A1B0008404D2F80C52C4F83803002D3AD102239B
:10A1C00082F808324FF42066334B1868C0F307203A
:10A1D00072B68D6B6C1C8C6300B300249C601F698D
:10A1E000FF0718D42F4FDFF8C8C08D633E44DE60F0
:10A1F000C3F810C0002D4CD0844213D2BFF34F8F50
:10A2000092F8083282F8584203EB430301EB8301D2
:10A21000D1F83803F8BD0134A042DFD104468D6384
:10A22000002D36D072B6204B1B68DB0700D500BE70
:10A23000FCF75EF8013315FA03F022D0B0FA80F093
:10A240000344DBB203EB830682F808323602BBE735
:10A250004FF00040D840154DC04355E8006F06EA66
:10A26000000745E8007C9CF0000FF6D11C4401EB90
:10A270008404D2F80C520020C4F83803002D9ED07C
:10A28000D8E7B5FA85F505EB850682F8085236025F
:10A290009AE762B6B0E700BF90ED00E0F812002048
:10A2A0000002002000060020F0ED00E00415002070
:10A2B0000F0029171EF0040F1CBFEFF309800AE0FE
:10A2C000EFF308800549064A884201D8904202D837
:10A2D0008D464FF00000034B18470000000004209B
:10A2E00000E00320156302000020004730B5064C53
:10A2F000236883B02BB10025A8472560236801930C
:10A30000019B03B030BD00BF000101402DE9F843BF
:10A310007F4BD3F80453002D00F0E4800026B446B0
:10A320002946012791FAA1F37A4AB3FA83F39800F8
:10A33000024407FA03F0146834BB8143F2D1764B30
:10A340001B68082B30D0DFF8E48106F4000536F4F2
:10A3500000060FD0DFF8D891012796FAA6F4B4FAD8
:10A3600084F409EB840307FA04F4D3F8A83098477F
:10A37000A643F2D198F838320BB9FEF771FA002DE6
:10A3800040F09680BDE8F883C2F800C0BFF36F8F3D
:10A39000BFF34F8F07FA03F3994346EA0306C1D18F
:10A3A0005D4B1B68082BCED15C4BDFF880811B68AE
:10A3B000002BCAD198F83832002B40F08580B002CB
:10A3C00040F18980564A574BDFF854C1554F40F24F
:10A3D000A97111601968524A11F0FF0118BF1B687A
:10A3E00040F2AA7018BF19404E4B10601A684D48D1
:10A3F00012F0FF021CBF1B681A40494B40F2AB74BD
:10A400001C60036813F0FF031CBF0068034040F2A8
:10A41000AC70CCF800003868014043480AD0D0F84E
:10A42000104240F2A97E0C43C0F81042CCF800E084
:10A43000396039683A4F3B4C40F2AD713960216860
:10A440000A400BD0D0F8101240F2AA7C41EA024137
:10A45000C0F81012C7F800C0226022683049314AA3
:10A4600040F2AE740C60126813400ED0D90748BF9A
:10A4700046F400062A49DA062A4A40F2AB740C6018
:10A480001360136848BF46F00106D0F8103233F06D
:10A4900001121CBF05F080710E4313F0011F3FF441
:10A4A00054AF6B0544BFC0F8102246F480664CE7F9
:10A4B000BDE8F843FCF766B9184B1E6806BBDFF829
:10A4C0006C8098F8383233B106F4000536F4000693
:10A4D0007FF440AF53E706F4000536F400067FF43E
:10A4E00039AF4AE70C4B1B68082BE5D00F4B93F8AC
:10A4F0003832002B7FF446AFBDE8F843FEF7B0B921
:10A500000A4B93F83832002B3FF437AF3AE700BFDD
:10A510000070024000710240300100103401001050
:10A520000078024004780240F81200200002002067
:10A5300080EC02002DE9F041114CDFF84C80114E07
:10A5400082B000254FF48037236807FA05F1013502
:10A550007BB1D8F8042304F5A04011424FF000036A
:10A5600080B206D0236023680193D6E93731019A7F
:10A570009847062D04F10404E6D102B0BDE8F0814D
:10A5800040B101400002002000B001402DE9F0413F
:10A59000114CDFF84C80114E82B000254FF480370B
:10A5A000236807FA05F101357BB1D8F8042304F5D7
:10A5B000C04011424FF0000380B206D023602368F0
:10A5C0000193D6E93431019A9847062D04F1040429
:10A5D000E6D102B0BDE8F08140A1014000020020B8
:10A5E00000A001402DE9F041114CDFF84C80114EE4
:10A5F00082B000254FF48037236807FA05F1013552
:10A600007BB1D8F8042304F5C04011424FF0000399
:10A6100080B206D0236023680193D6E93131019AD4
:10A620009847042D04F10404E6D102B0BDE8F0819E
:10A6300040A100400002002000A000402DE9F041B0
:10A64000114CDFF84C80114E82B000254FF480375A
:10A65000236807FA05F101357BB1D8F8042304F526
:10A66000E04011424FF0000380B206D0236023681F
:10A670000193D6E92E31019A9847042D04F1040480
:10A68000E6D102B0BDE8F081409100400002002018
:10A69000009000402DE9F041114CDFF84C80114E44
:10A6A00082B000254FF48037236807FA05F10135A1
:10A6B0007BB1D8F80423A4F5004011424FF0000309
:10A6C00080B206D0236023680193D6E92B31019A2A
:10A6D0009847042D04F10404E6D102B0BDE8F081EE
:10A6E000408100400002002000800040034A002317
:10A6F000B2F8DA12A2F8DA3205201847F812002070
:10A70000034A0023B2F8D812A2F8D832042018471E
:10A71000F8120020034A0023B2F8D612A2F8D6326B
:10A7200003201847F8120020034A0023B2F8D4127D
:10A73000A2F8D43202201847F8120020034A00235E
:10A74000B2F8D212A2F8D23201201847F812002033
:10A75000034B0020B3F8D012A3F8D002004700BF8B
:10A76000F81200201B4BD3F8182102B970470021C2
:10A77000194AC3F81811D3F8181192F8673382B048
:10A78000FF2B019101990ED092F86613A9B11F2BEE
:10A790008ABF12484FF0A04003F01F03012101FAC5
:10A7A00003F3C0F80C35002382F8653382F8503388
:10A7B000D2E9D2310A4802B018471F2B8ABF074896
:10A7C0004FF0A04003F01F03012101FA03F3C0F88A
:10A7D0000835E8E700F00240F812002000030050BE
:10A7E000481600202DE9F041734B1A6888B01ABB57
:10A7F000724F97F8CE32002B2CD1714B1A686AB188
:10A8000000221A601B68009302218DF81410D7F8FB
:10A81000A032009987F8B02205A89847694B1C68B8
:10A82000002C33D000221A601B680593059B87F823
:10A83000B02208B0BDE8F081604F00221A601968AC
:10A8400097F8CE3201910199002B52D097F8CF3270
:10A85000002B70D15C4B1A68002ACED00021196001
:10A86000186897F8CD22B7F8BA320290934202984E
:10A8700094B277D800F08C804F4B544A0021196075
:10A880001B680393012303991360B6E7D7F8B462FA
:10A89000002ECED04FF000480125B6FA86F101F126
:10A8A00046039B0003F1804202F5E042A3F58C735E
:10A8B000D2F800E083F0040028FA01F1C0F3800C24
:10A8C000DB0805A826EA0106BEF1000F0CD01460D3
:10A8D000126804928DF818308DF81450D7F8A03211
:10A8E0008DF819C0049A9847002ED6D108B0BDE85B
:10A8F000F081D7F8AC22D7F8A402B7F8A8128DF8E7
:10A9000014300690ADF81C10002A3DD03048B7F83E
:10A91000B812C7F8A4220122C7F8AC32A7F8BA12BD
:10A92000A7F8A8120260D7F8A03205A8984700231C
:10A9300087F8CF325DE7D7F8AC32D7F8A402B7F882
:10A94000A8128DF814200690ADF81C10E3B1B7F8EA
:10A95000B812C7F8A432C7F8AC22A7F8BA12A7F801
:10A96000A812E0E7B7F8A812D7F8A4021B1B9BB205
:10A9700089B2174CA7F8BA32C91A00EB4101C4F8E2
:10A980002C16C4F8302677E7002387F8B032CAE7E0
:10A99000D7F8AC3253B10E48A7F8BA12012187F8A4
:10A9A000CF12C0F82C36C0F8302665E70122A7F890
:10A9B000BA3287F8CF225FE704710040F812002016
:10A9C000107100401471004000710040047000409C
:10A9D000007000402DE9F0410024234F234E84B045
:10A9E000A0464FF48035D7F804332B420ED056F8EA
:10A9F0002430E0B253B1C7F84853C7F8085346F8BB
:10AA0000248056F824300393039BC0470134042C60
:10AA10004FEA4505E7D1144BD3F80423D10702D5FB
:10AA2000D3F80021B2B9104BD3F8042392070ED506
:10AA3000D3F804215AB10022C3F80421D3F8043119
:10AA40000193019B052004B0BDE8F041104704B01C
:10AA5000BDE8F0810022C3F80021D3F80031029351
:10AA60002046029B9047DEE7004002404041024002
:10AA70002DE9F0410024234F234E84B0A0464FF42B
:10AA80008035D7F804332B420ED056F82430E0B28C
:10AA900053B1C7F84853C7F8085346F8248056F80E
:10AAA00024300393039BC0470134032C4FEA450530
:10AAB000E7D1144BD3F80423D10702D5D3F80021F2
:10AAC000B2B9104BD3F8042392070ED5D3F8042162
:10AAD0005AB10022C3F80421D3F804310193019B39
:10AAE000052004B0BDE8F041104704B0BDE8F08196
:10AAF0000022C3F80021D3F8003102930420029B06
:10AB00009047DEE700B0004040B10040064A0749E8
:10AB1000002382B0136012680192019AD1F80805EF
:10AB2000C0B202B0184700BF00D1004000D00040C2
:10AB3000064B1A684AB1064A002082F87103186071
:10AB4000D2F86C33D2F87413184770470091024062
:10AB5000F812002010B5294B1A6886B022B1284A95
:10AB6000D2F80413C80737D4264B1A6822B1244AF6
:10AB7000D2F80413890719D4234B1A68A2B1204ACA
:10AB8000D2F8042352070FD500221A601B680393E2
:10AB90004FF48473ADF81030039B06AB13E9030048
:10ABA00006B0BDE81040104706B010BD00241C6080
:10ABB0001B6802934FF48273ADF81030029BD2F8F9
:10ABC0001835ADF81230D2F84835ADF8143006AB70
:10ABD00013E90300A047CFE700241C601B68019322
:10ABE0004FF48073ADF81030019BD2F80C358DF81E
:10ABF000123006AB13E90300A047B5E7002101407E
:10AC000000200140042101400821014000B5304BE3
:10AC1000D3F8102185B05AB100212E4AC3F8101183
:10AC2000D3F8101192F8953303910399590747D43B
:10AC3000274BD3F814215AB10021264AC3F8141126
:10AC4000D3F8141192F8953302911B07029930D46E
:10AC50001F4BD3F81C2162B11E4A0021C3F81C11FE
:10AC600092F89503D3F81C31019310F01000019B6A
:10AC700019D0174BD3F8042192B1164A0021C3F81A
:10AC80000411D3F80411D2F89033009101210098F7
:10AC900082F8941323B1032005B05DF804EB184744
:10ACA00005B05DF804FBD2F89033002BE1D0984753
:10ACB000DFE7D2F89033002BCAD002209847C7E7CD
:10ACC000D2F89033002BB3D001209847B0E700BFF3
:10ACD00000D00240F812002000B5304BD3F810210C
:10ACE00085B05AB100212E4AC3F81011D3F81011C3
:10ACF00092F88D3303910399590747D4274BD3F822
:10AD000014215AB10021264AC3F81411D3F81411A2
:10AD100092F88D3302911B07029930D41F4BD3F860
:10AD20001C2162B11E4A0021C3F81C1192F88D0348
:10AD3000D3F81C31019310F01000019B19D0174B70
:10AD4000D3F8042192B1164A0021C3F80411D3F8B4
:10AD50000411D2F8883300910121009882F88C13F5
:10AD600023B1032005B05DF804EB184705B05DF88A
:10AD700004FBD2F88833002BE1D09847DFE7D2F804
:10AD80008833002BCAD002209847C7E7D2F888330F
:10AD9000002BB3D001209847B0E700BF002002404D
:10ADA000F812002000B5304BD3F8102185B05AB10D
:10ADB00000212E4AC3F81011D3F8101192F88533F0
:10ADC00003910399590747D4274BD3F814215AB15B
:10ADD0000021264AC3F81411D3F8141192F88533D0
:10ADE00002911B07029930D41F4BD3F81C2162B18A
:10ADF0001E4A0021C3F81C1192F88503D3F81C31B8
:10AE0000019310F01000019B19D0174BD3F80421C7
:10AE100092B1164A0021C3F80411D3F80411D2F8F4
:10AE2000803300910121009882F8841323B103201C
:10AE300005B05DF804EB184705B05DF804FBD2F8E7
:10AE40008033002BE1D09847DFE7D2F88033002B26
:10AE5000CAD002209847C7E7D2F88033002BB3D07E
:10AE600001209847B0E700BF00100240F812002010
:10AE700000B5304BD3F8102185B05AB100212E4ACD
:10AE8000C3F81011D3F8101192F87D330391039990
:10AE9000590747D4274BD3F814215AB10021264A29
:10AEA000C3F81411D3F8141192F87D3302911B07E3
:10AEB000029930D41F4BD3F81C2162B11E4A0021E5
:10AEC000C3F81C1192F87D03D3F81C31019310F0E4
:10AED0001000019B19D0174BD3F8042192B1164AE8
:10AEE0000021C3F80411D3F80411D2F8783300918B
:10AEF0000121009882F87C1323B1032005B05DF88E
:10AF000004EB184705B05DF804FBD2F87833002B4A
:10AF1000E1D09847DFE7D2F87833002BCAD002207F
:10AF20009847C7E7D2F87833002BB3D00120984771
:10AF3000B0E700BF00C00140F8120020002318470E
:10AF400000231847002318470023184700231847F9
:10AF500010B54FF0804388B0D3F80443620705D59D
:10AF6000D3F8082103F58473002A74D1A30603D50E
:10AF70003C4B1A68002A67D1600603D53A4B1A6821
:10AF8000002A59D1210603D5384B1A68002A4CD122
:10AF9000E20503D5364B1A68002A3ED1A30503D536
:10AFA000344B1A68002A30D1334B1A686AB1002139
:10AFB000324A19601B6892F89D0300934FF080415C
:10AFC0000123009CC1F80833A0B12D4B1A68D2B1FF
:10AFD00000221A601A68294B0792D3F89833079811
:10AFE0004FF0804202210120C2F8081308B0BDE8EA
:10AFF00010401847D2F8981382F89D338847204BA9
:10B000001A68002AE4D108B010BD00221A601B683B
:10B0100001930220019B9047C6E700221A601B683B
:10B0200002930120029B9047B8E7002018601B683C
:10B030000393039B8047ABE700221A601B680493CD
:10B040000120049B90479DE7002018601B68059332
:10B05000059B804790E700221A601B680693069BB9
:10B06000904783E714010040180100401C01004094
:10B07000200100402401004000010040F81200209F
:10B080000401004010B54C4A136886B0002B42D032
:10B090004A4C0023136094F8B21313680193CB4316
:10B0A00003F0010304EB83020198D2F8A423002AE1
:10B0B00068D094F8B103002202288DF8142084F897
:10B0C000B32374D004EB810184F8B233D1F8A40324
:10B0D000C1F8A423012304908DF80C3003A8D4F800
:10B0E000A033984794F8B133022B02D1012384F89E
:10B0F000B13394F8B43363B1002301228DF80C20EE
:10B100000493D4F8A0238DF8143003A884F8B43342
:10B11000904706B010BD2A4A116809B9274CE8E7E4
:10B1200013601168274A254C02910299C2F8003534
:10B1300094F8B2238DF8143004EB82018DF80C30B2
:10B14000D1F8A40384F8B13340B1D4F8A02304901B
:10B1500003A8C1F8A433904794F8B223D24302F075
:10B16000010204EB8202D2F8A4333BB10493002124
:10B17000D4F8A033C2F8A41303A89847002384F896
:10B18000B233B6E794F8B123022A92D094F8B333DD
:10B19000002BA7D101228DF80C3004938DF81420D8
:10B1A000D4F8A03384F8B32303A898479AE701237F
:10B1B000104684F8B1338DE700D10140F812002029
:10B1C00004D1014000D0014070B5484B1A6884B0EA
:10B1D000002A33D1464C474B1A689AB100221A60B4
:10B1E00094F8BD231B68019342F0040303F011019E
:10B1F00011291A46019884F8BD3304BF43F0200298
:10B2000084F8BD233C4B1A687AB300251D601A6888
:10B21000029204220299C3F80022C3F8F853D4F82A
:10B22000B833364829469847D4F8B83334482946C5
:10B230009847012384F8BC3304B070BD2C4C002225
:10B240001A6094F8BD231B68009342F0080303F0D2
:10B25000120112291A4608BF43F0200284F8BD33B8
:10B26000009808BF84F8BD23B5E794F8BD3303F018
:10B270000F020F2A03D0DE0717D41D0715D594F847
:10B28000BD2322F00C02134684F8BD239A0613D581
:10B2900023F0300343F0100384F8BD330121D4F8C8
:10B2A000B8330020984704B070BD94F8BD239007D0
:10B2B000C2D45907C0D5E2E7104AD4F8B86392E87F
:10B2C000030002AD85E8030012E9030043F0100318
:10B2D00082E8030084F8BD3300220023C4E9F02390
:10B2E00028460121B04704B070BD00BF1451024090
:10B2F000F81200200451024008510240C0160020FC
:10B30000B81600202DE9F047002388B0CDE90233BC
:10B31000CD4A1168012900F055821E46CB4B1A68B0
:10B32000012A00F04182CA4B1A68012A00F02E82DD
:10B33000C84B1A68012A00F01B82C74B1A68012A01
:10B3400000F00882C54B1A68012A00F0F581C44B51
:10B350001A68012A00F0E281C24B1A68012A08D05B
:10B36000C14B1A68012A00F0398216BB08B0BDE84B
:10B37000F087BE4AD2F804231706F1D500221A60DE
:10B3800019680091196E0098012903F1600346F0D5
:10B3900080060ED11A601B6801934FF0A042019BFA
:10B3A000D2F81025B24B0292D3F81035039346F031
:10B3B0000046B04F01250024A30003F180432E4234
:10B3C00003F5C0434FEA45050BD0D3F8100557F8F5
:10B3D0002420D3F81015C0F30520C1F3014102B1B8
:10B3E00090470134082CE7D1002EBFDAA24CA04FC1
:10B3F0004FF0FF304FF0FF31CDE9040194F9A00088
:10B400000DF118080023451CC8F8043006934FF0CE
:10B41000010600F0FE80C0F3C20908AB03EB090E81
:10B4200000F007031EF8102C06FA03F312EA0305D6
:10B430005FFA80FC00F03F0022D022184FEA9C11F6
:10B4400092F9702004EB8202126C002A00F0408115
:10B45000032900F03F811F2800F2F18005464FF0DC
:10B46000A04C0CEB850C1EF8185CDCF800E71D40C6
:10B47000CEF3014E40F0D780BEF1030F00F0C08143
:10B4800094F9A100411C35D0C0F3C20E08AB03EB08
:10B490000E0C00F007031CF8101C06FA03F3194207
:10B4A000C2B200F03F0025D004EB0009910999F9E0
:10B4B000709004EB8909D9F84090B9F1000F00F0C1
:10B4C0001981032900F019811F2800F2FD808646AA
:10B4D0004FF0A04202EB8E021CF818ECD2F800C725
:10B4E0001EEA030FCCF3014C40F0E180BCF1030FE6
:10B4F00000F0988194F9A200421C35D0C0F3C20E2E
:10B5000008AB03EB0E0C00F007031CF8101C06FA46
:10B5100003F31942C2B200F03F0025D004EB00094A
:10B52000910999F9709004EB8909D9F84090B9F123
:10B53000000F00F0D580032900F0D5801F2800F20D
:10B54000AA8086464FF0A04202EB8E021CF818EC4F
:10B55000D2F800C71EEA030FCCF3014C40F08E80F6
:10B56000BCF1030F00F0728194F9A300431C35D0A5
:10B57000C0F3C20E08AB03EB0E0C00F007031CF87F
:10B58000101C06FA03F31942C2B200F03F0025D0A6
:10B5900004EB0009910999F9709004EB8909D9F835
:10B5A0004090B9F1000F00F0AF80032900F0AF80A8
:10B5B0001F288BBFBE464FF0A04E02F01F0202466E
:10B5C0000EEB82021CF818ECD2F800C71EEA030F3B
:10B5D000CCF3014C63D1BCF1030F1CD0002D3FF420
:10B5E000C5AE4FF0A042029BD2F81015D7F8100557
:10B5F0008B4203D1039B83423FF4B8AEDDE90623BF
:10B60000CDE9021094F9A000451CCDE904237FF494
:10B6100002AF002534E7032900F02C81B9F1000FB7
:10B62000DCD0C847DAE7BEF1020FF2D1032900F0FF
:10B630003C810025002A3FF423AF904720E70CF01F
:10B640001F05BC460DE700BF0061004004610040DB
:10B65000086100400C61004010610040146100402E
:10B66000186100401C6100407C61004000600040A7
:10B67000000300504002002000020020BCF1020F35
:10B680007FF472AF032900F00D81B9F1000F3FF490
:10B690006BAFC84768E702F01F0E3A4654E7BCF1AB
:10B6A000020F9BD10329B9D14FF4403CE4E0BCF137
:10B6B000020F7FF41FAF032900F0F180B9F1000FF2
:10B6C0003FF418AFC84715E702F01F0E3A4601E7EE
:10B6D00003299ED118F809501D4308F80950BAE60D
:10B6E00003297FF441AF18F80EA04AEA030A08F8CC
:10B6F0000EA023E703297FF4FDAE18F80EA04AEA56
:10B70000030A08F80EA0DFE603297FF467AF18F8F4
:10B710000EA04AEA030A08F80EA049E7644AD2F8E4
:10B72000042352067FF518AE00221A601B680093AE
:10B73000009B46F040060FE65D4AD2F804239106CE
:10B740007FF505AE00221A601B680093009B46F04F
:10B750002006FCE5564AD2F80423D0067FF5F2AD68
:10B7600000221A601B680093009B46F01006E9E572
:10B770004F4AD2F8042314077FF5DFAD00221A6088
:10B780001B680093009B46F00806D6E5484AD2F8AD
:10B79000042355077FF5CCAD00221A601B68009387
:10B7A000009B46F00406C3E5414AD2F804239707FC
:10B7B0007FF5B9AD00221A601B680093009B46F02C
:10B7C0000206B0E53A49D1F8046316F001063FF4E9
:10B7D000A5AD136013680093009B9FE500221A60DB
:10B7E0001B6801934FF0A042019BD2F81025314B0A
:10B7F0000292D3F810350393002E3FF4F7ADD6E54F
:10B8000003297FF417AF4FF40035DCF8003723F439
:10B810004033CCF80037DCF800372B43CCF8003746
:10B82000012507E703297FF449AF4FF4003CD2F824
:10B83000003723F44033C2F80037D2F8003701351F
:10B840004CEA0303EDB2C2F8003737E703297FF46F
:10B850001CAF4FF4003CD2F8003723F44033C2F859
:10B860000037D2F8003701354CEA0303EDB2C2F8D5
:10B8700000370AE74FF4003CD2F8003723F4403396
:10B88000C2F80037D2F80037013543EA0C03EDB2B5
:10B89000C2F80037B9F1000F7FF4C3AEA1E64FF450
:10B8A000403CC4E74FF4403CD5E74FF44035ACE7AB
:10B8B00000600040000300502DE98048DFF854B1DB
:10B8C0004FF0A0439BF87D1203228FB08024C3F871
:10B8D0001C274FF48040C3F838274FF0FF35C3F8DA
:10B8E0000C454FF480721424C3F80C05CDE90845CB
:10B8F000ADF8282000293DD19BF8803213B90123EF
:10B900008BF88032DFF810A19AF8AA40002C00F0E2
:10B910000184394B39491B6803F0F003303B18BFF1
:10B9200001230022FF248BF881324FF6FF704FF085
:10B93000FF338BF87C428BF867228BF87322ABF8CD
:10B940006402CBF85C32ABF87032CBF86832012677
:10B95000D4B272B606FA04F30B42DAF8380011D109
:10B9600000B962B6994302F10102F1D12449254898
:10B97000FAF74EFD72B6244B1B68DB0700D500BEFC
:10B98000FAF7B6FCDAF83C502B42E9D12B43CAF85F
:10B990003C308BF87C4200B962B608AB194CDFF83A
:10B9A000709000930027009A52F8043B00925A1CB2
:10B9B0001ED09BF87D120029D8D10AEB030008AAFB
:10B9C00090F9700061603A44013092F808E084F820
:10B9D0000AE0CBD10D4A52F8040B013000F0D183BC
:10B9E00001310829F7D1C1E7DBF8783203B1984774
:10B9F0000C349FB90127D6E7E80F00F0FFFF0F00D6
:10BA000010ED020054150020F0ED00E0400200208F
:10BA100048910040F8120020000200209AF8C0204F
:10BA2000002AA3D1CE49CF4B0A6009680691069936
:10BA30001A601B68CC480693069B02600168CB4BDA
:10BA4000069106991A601B68C9490693E025C94BFF
:10BA5000069E81F809534FF400740C60D3F8041566
:10BA6000CAF8BC7021F00301C3F80415D3F8081517
:10BA70008AF8C07021F00301C3F80815D3F8101537
:10BA8000BD4DBE4E21F00F0141F00701C3F8101566
:10BA9000D3F81045DF60D3F8001221F48061E4B2DE
:10BAA00021F00401C3F8001225FA04F1B44CCBF8DC
:10BAB0007412CAF8B840D3F800428BF87D7244F093
:10BAC0000404C3F80042026000689BF867420790D4
:10BAD000CBF878624FF48020AA4E079FC3F8040386
